:100000000C945D000C9485000C9485000C94850084
:100010000C9485000C9485000C9485000C9485004C
:100020000C9485000C9485000C9485000C9441047C
:100030000C9485000C9485000C9485000C9485002C
:100040000C9466030C9485000C9485000C94850038
:100050000C9485000C9485000C9485000C9485000C
:100060000C9485000C94850000000007000201003C
:100070000003040600000000000000000102040864
:100080001020408001020408102001020408102002
:10009000040404040404040402020202020203032E
:1000A0000303030300000000250028002B000000CC
:1000B0000000240027002A005A0311241FBECFEF9E
:1000C000D8E0DEBFCDBF11E0A0E0B1E0E8EEF2E1A4
:1000D00002C005900D92AA30B107D9F721E0AAE03D
:1000E000B1E001C01D92A235B207E1F710E0CAEB02
:1000F000D0E004C02297FE010E945F09C83BD107EF
:10010000C9F70E9434040C9414070C940000CF9299
:10011000DF92EF92FF926B017C019B01AC010E9488
:100120009208A70196010E949208FF90EF90DF903D
:10013000CF900895CF92DF92EF92FF9220E030E0CF
:1001400040E85FE30E9417076B017C019B01AC0153
:100150000E949208A70196010E94920820E030E0D8
:1001600040E85FE30E941807FF90EF90DF90CF9088
:1001700008958F929F92AF92BF92CF92DF92EF92AB
:10018000FF926B017C012CE83EE24AEB5EE30E94A9
:100190007C0787FF13C020E030E042EF52E4C70144
:1001A000B6010E949208A70196010E94920820E0E1
:1001B00030E040E85DE30E94920878C02CE83EE21F
:1001C0004AE35FE3C701B6010E947C0787FF21C0B5
:1001D00023E333E341E151E4C701B6010E949208F1
:1001E000A70196010E9492084B015C0126E636E6C3
:1001F0004EE151E4C701B6010E9492089B01AC0197
:10020000C501B4010E9417072AE939E949E550E41C
:100210004BC026E636E646E65FE3C701B6010E941C
:100220007C0787FF21C02FE430E141E451E4C7019E
:10023000B6010E949208A70196010E9492084B0104
:100240005C012BE635E14DE951E4C701B6010E949E
:1002500092089B01AC01C501B4010E94170725E774
:100260003EE54EE051E420C02DEC3CEC4CE251E484
:10027000C701B6010E949208A70196010E94920848
:100280004B015C0126EF38E244EA51E4C701B601B4
:100290000E9492089B01AC01C501B4010E9417079E
:1002A0002FE135E84BE251E40E941807FF90EF90F0
:1002B000DF90CF90BF90AF909F908F9008959B015B
:1002C000AC0160E070E080E89FE30E9417070E94A5
:1002D000B9009B01AC0160E070E080E89FE30E9400
:1002E00017070895609108017091090180E291E07B
:1002F0000E94970560910601709107018DE191E0E0
:100300000E94970560910401709105018AE191E0D6
:100310000E94970560E070E080E291E00E94D005C5
:1003200060E070E08DE191E00E94D00560E070E057
:100330008AE191E00E94D00568EE73E080E090E0F1
:100340000C94D3038F929F92AF92BF92CF92DF9281
:10035000EF92FF921092160110921701109218015D
:10036000109219018090160190901701A090180129
:10037000B0901901C0900001D0900101E0900201FD
:10038000F0900301A7019601C501B4010E947C070A
:1003900018160CF4B1C0A7019601C501B4010E9462
:1003A00080070E949A0020E030E040E253E40E947F
:1003B000920820E030E040E251E40E941807609388
:1003C00012017093130180931401909315012091F1
:1003D00000013091010140910201509103016091AF
:1003E00016017091170180911801909119010E94D6
:1003F00080070E94B90020E030E040E253E40E9410
:10040000920820E030E040E251E40E941807609337
:100410000E0170930F01809310019093110120E061
:1004200030E040E253E46091160170911701809131
:100430001801909119010E949208209100013091B9
:10044000010140910201509103010E94800720E0C8
:1004500030E040E251E40E94180760930A01709373
:100460000B0180930C0190930D016091120170912A
:10047000130180911401909115010E94E80780E218
:1004800091E00E94D00560910E0170910F01809162
:100490001001909111010E94E8078DE191E00E9406
:1004A000D00560910A0170910B0180910C0190912F
:1004B0000D010E94E8078AE191E00E94D00561E009
:1004C00070E080E090E00E94D30320E030E040E85C
:1004D0005FE360911601709117018091180190916E
:1004E00019010E94180760931601709317018093F9
:1004F00018019093190136CFC0921601D0921701BE
:10050000E0921801F0921901C0901601D0901701E5
:10051000E0901801F090190120E030E0A901C70136
:10052000B6010E948E0887FDB7C02091000130916E
:1005300001014091020150910301C701B6010E94DF
:1005400080070E94870020E030E040E253E40E94F0
:10055000920820E030E040E251E40E9418076093E6
:10056000120170931301809314019093150120914F
:10057000000130910101409102015091030160910D
:1005800016017091170180911801909119010E9434
:1005900080070E945F0120E030E040E253E40E94C7
:1005A000920820E030E040E251E40E941807609396
:1005B0000E0170930F01809310019093110120E0C0
:1005C00030E040E253E46091160170911701809190
:1005D0001801909119010E94920820910001309118
:1005E000010140910201509103010E94800720E027
:1005F00030E040E251E40E94180760930A017093D2
:100600000B0180930C0190930D0160911201709188
:10061000130180911401909115010E94E80780E276
:1006200091E00E94D00560910E0170910F018091C0
:100630001001909111010E94E8078DE191E00E9464
:10064000D00560910A0170910B0180910C0190918D
:100650000D010E94E8078AE191E00E94D00561E067
:1006600070E080E090E00E94D30320E030E040E8BA
:100670005FE36091160170911701809118019091CC
:1006800019010E9417076093160170931701809358
:1006900018019093190138CF68EE73E080E090E084
:1006A000FF90EF90DF90CF90BF90AF909F908F9092
:1006B0000C94D30380E291E00E94FD048DE191E06F
:1006C0000E94FD048AE191E00C94FD041F920F92B8
:1006D0000FB60F9211242F933F938F939F93AF9355
:1006E000BF938091240190912501A0912601B091A2
:1006F00027013091230123E0230F2D3720F40196A9
:10070000A11DB11D05C026E8230F0296A11DB11D34
:10071000209323018093240190932501A093260127
:10072000B09327018091280190912901A0912A017D
:10073000B0912B010196A11DB11D809328019093CA
:100740002901A0932A01B0932B01BF91AF919F91F2
:100750008F913F912F910F900FBE0F901F90189582
:100760003FB7F8948091280190912901A0912A0126
:10077000B0912B0126B5A89B05C02F3F19F001961B
:10078000A11DB11D3FBF6627782F892F9A2F620FB9
:10079000711D811D911D42E0660F771F881F991FF3
:1007A0004A95D1F70895CF92DF92EF92FF92CF93BF
:1007B000DF936B017C010E94B003EB01C114D104F3
:1007C000E104F10479F00E94B0036C1B7D0B683EDC
:1007D0007340A0F381E0C81AD108E108F108C851BC
:1007E000DC4FECCFDF91CF91FF90EF90DF90CF9077
:1007F0000895789484B5826084BD84B5816084BD99
:1008000085B5826085BD85B5816085BDEEE6F0E089
:10081000808181608083E1E8F0E0108280818260E5
:100820008083808181608083E0E8F0E08081816066
:100830008083E1EBF0E0808184608083E0EBF0E096
:10084000808181608083EAE7F0E08081846080833A
:1008500080818260808380818160808380818068E4
:1008600080831092C10008950E94F9030E947201D2
:10087000C0E0D0E00E94A2012097E1F30E940000B6
:10088000F9CF1F920F920FB60F9211242F933F931F
:100890004F935F936F937F938F939F93AF93BF9388
:1008A000EF93FF9380912D0187FF05C01092850083
:1008B000109284001AC020912D01332727FD309516
:1008C00080912C0190E0281739077CF480912D014C
:1008D000992787FD9095FC01EE0FFF1FE80FF91F88
:1008E000E25DFE4F808186FD15C080912D018F5FF6
:1008F00080932D0120912D01332727FD3095809184
:100900002C0190E028173907BCF480912D018C3020
:100910005CF112C080912D01992787FD9095FC0113
:10092000EE0FFF1FE80FF91FE25DFE4F808160E0D0
:100930008F730E949706D9CF809184009091850093
:10094000049680349C4918F480E49CE905C08091A9
:10095000840090918500049690938900809388008C
:100960008FEF80932D0138C0809184009091850095
:1009700020912D01332727FD3095F901EE0FFF1F40
:10098000E20FF31FE25DFE4F21813281820F931F40
:10099000909389008093880080912D01992787FD8D
:1009A0009095FC01EE0FFF1FE80FF91FE25DFE4F6F
:1009B000808186FF11C080912D01992787FD909538
:1009C000FC01EE0FFF1FE80FF91FE25DFE4F808173
:1009D00061E08F730E949706FF91EF91BF91AF91F5
:1009E0009F918F917F916F915F914F913F912F9147
:1009F0000F900FBE0F901F90189520912C012C3056
:100A0000A0F431E0320F30932C01FC012083822FBF
:100A100090E0FC01EE0FFF1FE80FF91FE25DFE4FB3
:100A200088EB9BE09283818308952FEFFC01208364
:100A30000895DF92EF92FF920F931F93CF93DF936E
:100A4000EC01D62E7A01890188818C3008F066C0CD
:100A500061E08D2D0E945E068881A82FB0E0FD0127
:100A6000EE0FFF1FEA0FFB1FE25DFE4F2D2D2F73D0
:100A70009081907C922B908360E272E06E197F09E6
:100A800077FF02C06D5F7F4F759567957595679588
:100A9000698340E659E0401B510B57FF02C04D5F90
:100AA0005F4F55954795559547954A836CE00E9451
:100AB00005099CE0899FB001112420E030E0A901E4
:100AC000460F571FFA01EE0FFF1FE40FF51FE25DFF
:100AD000FE4F908196FD16C02F5F3F4F2C303105A1
:100AE00071F781110FC01092800082E08093810025
:100AF0001092850010928400B19A80916F008260FC
:100B000080936F00888190E0FC01EE0FFF1FE80FDB
:100B1000F91FE25DFE4F8081806480838881DF91D0
:100B2000CF911F910F91FF90EF90DF90089520E6F5
:100B300039E040E252E00C941905FC0180818C30D0
:100B400070F5918128E830E0291B310997FD339534
:100B5000220F331F220F331F621773077CF092811D
:100B600028E532E0291B310997FD3395220F331F09
:100B7000220F331F621773070CF49B014FB7F894D1
:100B800090E0FC01EE0FFF1FE80FF91FE25DFE4F42
:100B900022503109220F331F328321834FBF089522
:100BA0004F925F926F927F92AF92BF92CF92DF92FD
:100BB000EF92FF920F931F93CF93DF93EC0160327C
:100BC00082E078070CF040C077FD06C0653B7105F8
:100BD0002CF064EB70E002C060E070E0898128E8EE
:100BE00030E0281B310987FD3395220F331F220F78
:100BF000331F5901CC24B7FCC094DC2C882777FD27
:100C00008095982F2A8148E552E0421B510927FD23
:100C10005395440F551F440F551F2A01662457FC56
:100C20006094762C7F926F925F924F9214EBE12E3C
:100C3000F12C00E010E020E030E0A9010E94CD0698
:100C40000F900F900F900F90CE01DF91CF911F91D9
:100C50000F91FF90EF90DF90CF90BF90AF907F907B
:100C60006F905F904F900C949D05833081F028F435
:100C7000813099F08230A1F008958630A9F0873054
:100C8000B9F08430D1F4809180008F7D03C08091D1
:100C900080008F7780938000089584B58F7702C09D
:100CA00084B58F7D84BD08958091B0008F7703C097
:100CB0008091B0008F7D8093B0000895CF93DF9333
:100CC00090E0FC01E458FF4F2491FC01E057FF4FF6
:100CD0008491882349F190E0880F991FFC01E25527
:100CE000FF4FA591B4918C559F4FFC01C591D491B4
:100CF0009FB7611108C0F8948C91209582238C9342
:100D0000888182230AC0623051F4F8948C91322F8A
:100D1000309583238C938881822B888304C0F89438
:100D20008C91822B8C939FBFDF91CF9108950F936D
:100D30001F93CF93DF931F92CDB7DEB7282F30E0FC
:100D4000F901E859FF4F8491F901E458FF4F1491DC
:100D5000F901E057FF4F04910023C9F0882321F0E7
:100D600069830E9435066981E02FF0E0EE0FFF1FD6
:100D7000EC55FF4FA591B4919FB7F8948C916111F8
:100D800003C01095812301C0812B8C939FBF0F90CE
:100D9000DF91CF911F910F9108954F925F926F92C3
:100DA0007F92AF92BF92CF92DF92EF92FF920F931A
:100DB0001F93CF93DF93CDB7DEB729013A01621BB2
:100DC000730B840B950B29893A894B895C892A1905
:100DD0003B094C095D09298B3A8B4B8B5C8B9B0142
:100DE000AC0169897A898B899C890E94F508E4188D
:100DF000F50806091709A80197010E9411092A0D93
:100E00003B1D4C1D5D1DCA01B901DF91CF911F91A2
:100E10000F91FF90EF90DF90CF90BF90AF907F90B9
:100E20006F905F904F900895F8940C947209505809
:100E3000BB27AA270ED038C129D130F02ED120F0FF
:100E400031F49F3F11F41EF41EC10EF4E095E7FB50
:100E500014C1E92F3AD180F3BA17620773078407E8
:100E6000950718F071F49EF552C10EF4E0950B2E23
:100E7000BA2FA02D0B01B90190010C01CA01A001EC
:100E80001124FF27591B99F0593F50F4503E68F147
:100E90001A16F040A22F232F342F4427585FF3CF88
:100EA000469537952795A795F0405395C9F77EF459
:100EB0001F16BA0B620B730B840BBAF09150A1F0A2
:100EC000FF0FBB1F661F771F881FC2F70EC0BA0F28
:100ED000621F731F841F48F4879577956795B795B0
:100EE000F7959E3F08F0B3CF9395880F08F09927A8
:100EF000EE0F9795879508959CD008F481E00895AA
:100F00000CD0D2C0CAD040F0C1D030F021F45F3F45
:100F100019F0B3C05111FCC0B6C0D7D098F39923D3
:100F2000C9F35523B1F3951B550BBB27AA276217AD
:100F30007307840738F09F5F5F4F220F331F441FF2
:100F4000AA1FA9F333D00E2E3AF0E0E830D091502A
:100F50005040E695001CCAF729D0FE2F27D0660F17
:100F6000771F881FBB1F261737074807AB07B0E856
:100F700009F0BB0B802DBF01FF2793585F4F2AF06C
:100F80009E3F510568F079C0C3C05F3FECF3983EC7
:100F9000DCF3869577956795B795F7959F5FC9F7C9
:100FA000880F911D9695879597F90895E1E0660F52
:100FB000771F881FBB1F621773078407BA0720F0CB
:100FC000621B730B840BBA0BEE1F88F7E095089534
:100FD00004D06894B1119CC008957FD088F09F57C9
:100FE00090F0B92F9927B751A0F0D1F0660F771F75
:100FF000881F991F1AF0BA95C9F712C0B13081F055
:1010000086D0B1E0089583C0672F782F8827B85F16
:1010100039F0B93FCCF3869577956795B395D9F7B5
:101020003EF490958095709561957F4F8F4F9F4FBF
:101030000895990F0008550FAA0BE0E8FEEF161669
:101040001706E807F907C0F012161306E407F507BC
:1010500098F0621B730B840B950B39F40A2661F030
:10106000232B242B252B21F408950A2609F4A140D3
:10107000A6958FEF811D811D089597F99F6780E8E0
:1010800070E060E008959FEF80EC089500240A94DA
:101090001616170618060906089500240A94121653
:1010A0001306140605060895092E0394000C11F486
:1010B000882352F0BB0F40F4BF2B11F460FF04C033
:1010C0006F5F7F4F8F4F9F4F089557FD9058440F8C
:1010D000551F59F05F3F71F04795880F97FB991F97
:1010E00061F09F3F79F08795089512161306140654
:1010F000551FF2CF4695F1DF08C0161617061806E1
:10110000991FF1CF86957105610508940895E894BB
:10111000BB2766277727CB0197F908958ADF08F464
:101120008FEF08950BD0C0CFB1DF28F0B6DF18F0F5
:10113000952309F0A2CFA7CF1124EACFC6DFA0F3F1
:10114000959FD1F3950F50E0551F629FF001729F5C
:10115000BB27F00DB11D639FAA27F00DB11DAA1F7B
:10116000649F6627B00DA11D661F829F2227B00DC8
:10117000A11D621F739FB00DA11D621F839FA00D53
:10118000611D221F749F3327A00D611D231F849FA3
:10119000600D211D822F762F6A2F11249F575040FA
:1011A0008AF0E1F088234AF0EE0FFF1FBB1F661F95
:1011B000771F881F91505040A9F79E3F510570F04E
:1011C0005CCFA6CF5F3FECF3983EDCF38695779536
:1011D0006795B795F795E7959F5FC1F7FE2B880F49
:1011E000911D9695879597F90895DB018F939F93AD
:1011F0000E943009BF91AF91A29F800D911DA39FC6
:10120000900DB29F900D11240895991B79E004C0B0
:10121000991F961708F0961B881F7A95C9F7809535
:101220000895052E97FB1EF400940E94280957FD8F
:1012300007D00E943B0907FC03D04EF40C94280908
:1012400050954095309521953F4F4F4F5F4F0895F2
:1012500090958095709561957F4F8F4F9F4F089522
:101260000E946309A59F900DB49F900DA49F800DCF
:10127000911D11240895A1E21A2EAA1BBB1BFD018A
:101280000DC0AA1FBB1FEE1FFF1FA217B307E40765
:10129000F50720F0A21BB30BE40BF50B661F771FBD
:1012A000881F991F1A9469F760957095809590959D
:1012B0009B01AC01BD01CF010895EE0FFF1F05900A
:1012C000F491E02D0994A29FB001B39FC001A39FA8
:1012D000700D811D1124911DB29F700D811D11246F
:0812E000911D0895F894FFCF61
:0A12E8000000FA44090006000500AA
:00000001FF
