:100000000C946A010C949B010C949B010C949B0131
:100010000C949B010C949B010C949B010C949B01F0
:100020000C949B010C949B010C949B010C949B01E0
:100030000C949B010C949B010C949B010C949B01D0
:100040000C949B010C946E060C949B010C949B01E8
:100050000C949B010C949B010C949B010C94AB049D
:100060000C949B010C949B010C949B010C949B01A0
:100070000C949B010C949B010C949B010C949B0190
:100080000C949C060C949B010C949B010C949B017A
:100090000C949B010C949B010C949B010C949B0170
:1000A0000C949B010C949B010C94CA060C949B012C
:1000B0000C949B010C949B010C949B010C94F806EE
:1000C0000C949B010C949B010C949B010C949B0140
:1000D0000C949B010C949B010C949B010C949B0130
:1000E0000C949B01A408A7089A089E08DE08AB0898
:1000F000AF08B508B908BD08C308C708CB08DE08B3
:10010000D108D508D90807634236B79BD8A71A3952
:10011000685618AEBAAB558C1D3CB7CC5763BD6D55
:10012000EDFD753EF6177231BF000000803F0800FC
:100130000000BE922449123EABAAAA2ABECDCCCC66
:100140004C3E00000080BEABAAAAAA3E0000000000
:10015000BF000000803F0000000000084178D3BBD2
:100160004387D1133D190E3CC3BD4282AD2B3E687F
:10017000EC8276BED98FE1A93E4C80EFFFBE01C470
:10018000FF7F3F00000000000C94C7080C94B508E6
:100190000C94AF080C949A080C949E080C94B9081F
:1001A0000C94BD080C94D9080C94D1080C94AB089D
:1001B0000C94C3080C94A7080C94A4080C949F04F6
:1001C0000C94DE080C94D5080C94CB080000090AA6
:1001D00002080B0C0D0706030401000000000000DC
:1001E000000000000000000000000000000000000F
:1001F000000000000000000011100F0000000000CF
:1002000000000000000000000000000000000000EE
:10021000000001021020200808102040102040801B
:1002200002010201080402010102040810204080BA
:100230008040201008040201800402018040201048
:100240000804020108040201010204081020408091
:10025000010204081020408005050505070508086F
:100260000808020202020A0A080804040404010140
:100270000101010101010303030303030303040755
:1002800007070C0C0C0C0C0C0C0C020202020606EC
:100290000606060606060B0B0B0B0B0B0B0B0000E2
:1002A0002200250028002B002E003100340002011E
:1002B0000000050108010B010000210024002700B7
:1002C0002A002D0030003300010100000401070165
:1002D0000A019F0411241FBECFEFD1E2DEBFCDBFC4
:1002E00000E00CBF12E0A0E0B2E0E6E3FBE100E0DA
:1002F0000BBF02C007900D92AA30B107D9F722E0D8
:10030000AAE0B2E001C01D92A13CB207E1F712E001
:10031000C4EDD2E000E006C022970109FE010BBF48
:100320000E94640DC23DD10780E00807A9F70E9432
:10033000A0050C9495090C940000CF92DF92EF92E7
:10034000FF926B017C0120E030E0A9010E94FD09D1
:100350008823D1F020E030E040E85FE3C701B60138
:100360000E94980920E030E040E251E40E94130B23
:100370009B01AC0160E070E080E090E4FF90EF90C2
:10038000DF90CF900C94760BC701B601FF90EF90F1
:10039000DF90CF9008950F931F93CF93DF938B013E
:1003A000D82FC92F20E030E040E85FE30E94FD092C
:1003B0008823E1F020E030E040E251ECB8018D2FDD
:1003C0009C2F0E94130B9B01AC0160E070E080E069
:1003D00090E40E94760B9B01AC0160E070E080E845
:1003E0009FE30E9498098B01D82FC92FB8018D2F48
:1003F0009C2FDF91CF911F910F9108958F929F9223
:10040000AF92BF92CF92DF92EF92FF926B017C018D
:100410002CE83EE24AEB5EE30E94FD0987FF13C031
:1004200020E030E042EF52E4C701B6010E94130B16
:10043000A70196010E94130B20E030E040E85DE345
:100440000E94130B78C02CE83EE24AE35FE3C70149
:10045000B6010E94FD0987FF21C023E333E341E198
:1004600051E4C701B6010E94130BA70196010E9437
:10047000130B4B015C0126E636E64EE151E4C70161
:10048000B6010E94130B9B01AC01C501B4010E948F
:1004900098092AE939E949E550E44BC026E636E6F1
:1004A00046E65FE3C701B6010E94FD0987FF21C050
:1004B0002FE430E141E451E4C701B6010E94130B7F
:1004C000A70196010E94130B4B015C012BE635E15D
:1004D0004DE951E4C701B6010E94130B9B01AC0129
:1004E000C501B4010E94980925E73EE54EE051E4BC
:1004F00020C02DEC3CEC4CE251E4C701B6010E9457
:10050000130BA70196010E94130B4B015C0126EF10
:1005100038E244EA51E4C701B6010E94130B9B0183
:10052000AC01C501B4010E9498092FE135E84BE206
:1005300051E40E949909FF90EF90DF90CF90BF9017
:10054000AF909F908F9008959B01AC0160E070E0A8
:1005500080E89FE30E9498090E94FE019B01AC0184
:1005600060E070E080E89FE30E9498090895609140
:1005700008027091090280E292E00E94F107609106
:100580000602709107028DE192E00E94F1076091EE
:100590000402709105028AE192E00E94F10760E096
:1005A00070E080E292E00E942A0860E070E08DE155
:1005B00092E00E942A0860E070E08AE192E00E94E6
:1005C0002A0868EE73E080E090E00C9418058F92A2
:1005D0009F92AF92BF92CF92DF92EF92FF921092D2
:1005E00016021092170210921802109219028090AF
:1005F000160290901702A0901802B0901902C090B5
:100600000002D0900102E0900202F0900302A701E4
:100610009601C501B4010E94FD0918160CF4B1C081
:10062000A7019601C501B4010E94010A0E94CB01F5
:1006300020E030E040E253E40E94130B20E030E081
:1006400040E251E40E9499096093120270931302F0
:1006500080931402909315022091000230910102C0
:1006600040910202509103026091160270911702AC
:1006700080911802909119020E94010A0E94FE01C5
:1006800020E030E040E253E40E94130B20E030E031
:1006900040E251E40E94990960930E0270930F02A8
:1006A000809310029093110220E030E040E253E486
:1006B00060911602709117028091180290911902B0
:1006C0000E94130B2091000230910102409102021E
:1006D000509103020E94010A20E030E040E251E420
:1006E0000E94990960930A0270930B0280930C0296
:1006F00090930D0260911202709113028091140286
:10070000909115020E94690A80E292E00E942A08F4
:1007100060910E0270910F0280911002909111026F
:100720000E94690A8DE192E00E942A0860910A0203
:1007300070910B0280910C0290910D020E94690A47
:100740008AE192E00E942A0861E070E080E090E097
:100750000E94180520E030E040E85FE36091160257
:100760007091170280911802909119020E949909C4
:1007700060931602709317028093180290931902E7
:1007800036CFC0921602D0921702E0921802F09271
:100790001902C0901602D0901702E0901802F09053
:1007A000190220E030E0A901C701B6010E940F0B39
:1007B00087FDB7C0209100023091010240910202F2
:1007C00050910302C701B6010E94010A0E949D01D7
:1007D00020E030E040E253E40E94130B20E030E0E0
:1007E00040E251E40E94990960931202709313024F
:1007F000809314029093150220910002309101021F
:10080000409102025091030260911602709117020A
:1008100080911802909119020E94010A0E94A4027C
:1008200020E030E040E253E40E94130B20E030E08F
:1008300040E251E40E94990960930E0270930F0206
:10084000809310029093110220E030E040E253E4E4
:10085000609116027091170280911802909119020E
:100860000E94130B2091000230910102409102027C
:10087000509103020E94010A20E030E040E251E47E
:100880000E94990960930A0270930B0280930C02F4
:1008900090930D02609112027091130280911402E4
:1008A000909115020E94690A80E292E00E942A0853
:1008B00060910E0270910F028091100290911102CE
:1008C0000E94690A8DE192E00E942A0860910A0262
:1008D00070910B0280910C0290910D020E94690AA6
:1008E0008AE192E00E942A0861E070E080E090E0F6
:1008F0000E94180520E030E040E85FE360911602B6
:100900007091170280911802909119020E94980923
:100910006093160270931702809318029093190245
:1009200038CF68EE73E080E090E0FF90EF90DF90CA
:10093000CF90BF90AF909F908F900C94180580E25D
:1009400092E00E9426078DE192E00E9426078AE14C
:1009500092E00C9426071F920F920FB60F9211246B
:100960002F933F938F939F93AF93BF9380912402D4
:1009700090912502A0912602B09127023091230286
:1009800023E0230F2D3720F40196A11DB11D05C0D2
:1009900026E8230F0296A11DB11D20932302809308
:1009A000240290932502A0932602B09327028091FF
:1009B000280290912902A0912A02B0912B0201965F
:1009C000A11DB11D8093280290932902A0932A02B1
:1009D000B0932B02BF91AF919F918F913F912F9137
:1009E0000F900FBE0F901F9018953FB7F89480910D
:1009F000280290912902A0912A02B0912B0226B5DB
:100A0000A89B05C02F3F19F00196A11DB11D3FBF46
:100A10006627782F892F9A2F620F711D811D911DD6
:100A200042E0660F771F881F991F4A95D1F70895F6
:100A3000CF92DF92EF92FF92CF93DF936B017C0115
:100A40000E94F504EB01C114D104E104F10479F032
:100A50000E94F5046C1B7D0B683E7340A0F381E09F
:100A6000C81AD108E108F108C851DC4FECCFDF917A
:100A7000CF91FF90EF90DF90CF900895789484B558
:100A8000826084BD84B5816084BD85B5826085BD8A
:100A900085B5816085BDEEE6F0E080818160808370
:100AA000E1E8F0E010828081826080838081816053
:100AB0008083E0E8F0E0808181608083E1EBF0E01A
:100AC000808184608083E0EBF0E0808181608083BE
:100AD000E1E9F0E0808182608083808181608083B1
:100AE000E0E9F0E0808181608083E1EAF0E08081EC
:100AF00082608083808181608083E0EAF0E0808191
:100B000081608083E1E2F1E0808182608083808186
:100B100081608083E0E2F1E0808181608083EAE7A8
:100B2000F0E0808184608083808182608083808126
:100B3000816080838081806880831092C1000895E5
:100B40000E943E050E94B702C0E0D0E00E94E7028A
:100B50002097E1F30E940000F9CFCF92DF92EF924D
:100B6000FF920F931F93CF93DF936C018B017A0158
:100B7000EC01C35DDD4F888187FF04C0FB0111825A
:100B8000108223C02CE02C9DC0012D9D900D1124BE
:100B90002881AC01420F511D27FD5A9520912C024E
:100BA00030E0421753078CF42881AC01420F511DED
:100BB00027FD5A959A01FA01EE0FFF1FE20FF31F6E
:100BC000EF5CFD4F208126FD19C088818F5F8883EF
:100BD0008CE08C9D90018D9D300D11248881A901A0
:100BE000480F511D87FD5A9580912C0290E04817BF
:100BF0005907B4F488818C303CF112C02881820FEF
:100C0000911D27FD9A95FC01EE0FFF1FE80FF91FBC
:100C1000EF5CFD4F808160E08F730E941809D5CF93
:100C2000F80180819181049680349C4918F480E415
:100C30009CE904C0F801808191810496F7019183B9
:100C400080838FEF888341C0F80180819181488142
:100C5000B901640F711D47FD7A95AB01FB01EE0FE1
:100C6000FF1FE40FF51FEF5CFD4F41815281840FA0
:100C7000951FF701918380838881A901480F511D39
:100C800087FD5A95FA01EE0FFF1FE40FF51FEF5C89
:100C9000FD4F808186FF19C08881280F311D87FD97
:100CA0003A95F901EE0FFF1FE20FF31FEF5CFD4FC6
:100CB000808161E08F73DF91CF911F910F91FF9041
:100CC000EF90DF90CF900C941809DF91CF911F9196
:100CD0000F91FF90EF90DF90CF9008951F920F92A9
:100CE0000FB60F9211240BB60F922F933F934F9391
:100CF0005F936F937F938F939F93AF93BF93EF9384
:100D0000FF9348E850E064E870E081E090E00E94E2
:100D1000AD05FF91EF91BF91AF919F918F917F9121
:100D20006F915F914F913F912F910F900BBE0F905C
:100D30000FBE0F901F9018951F920F920FB60F9233
:100D400011240BB60F922F933F934F935F936F93A2
:100D50007F938F939F93AF93BF93EF93FF9348E954
:100D600050E064E970E082E090E00E94AD05FF9100
:100D7000EF91BF91AF919F918F917F916F915F9113
:100D80004F913F912F910F900BBE0F900FBE0F9080
:100D90001F9018951F920F920FB60F9211240BB649
:100DA0000F922F933F934F935F936F937F938F9304
:100DB0009F93AF93BF93EF93FF9348EA50E064EAA9
:100DC00070E083E090E00E94AD05FF91EF91BF914C
:100DD000AF919F918F917F916F915F914F913F91D3
:100DE0002F910F900BBE0F900FBE0F901F90189574
:100DF0001F920F920FB60F9211240BB60F922F93E2
:100E00003F934F935F936F937F938F939F93AF9392
:100E1000BF93EF93FF9348E251E064E271E080E01A
:100E200090E00E94AD05FF91EF91BF91AF919F912E
:100E30008F917F916F915F914F913F912F910F9083
:100E40000BBE0F900FBE0F901F90189520912C0293
:100E50002033A0F431E0320F30932C02FC012083C8
:100E6000822F90E0FC01EE0FFF1FE80FF91FEF5CEF
:100E7000FD4F88EB9BE09283818308952FEFFC0167
:100E800020830895DF92EF92FF920F931F93CF93E9
:100E9000DF93EC01D62E7A0189018881803308F036
:100EA00068C061E08D2D0E94DF088881A82FB0E026
:100EB000FD01EE0FFF1FEA0FFB1FEF5CFD4F2D2D15
:100EC0002F739081907C922B908360E272E06E1978
:100ED0007F0977FF02C06D5F7F4F759567957595A8
:100EE0006795698340E659E0401B510B57FF02C0EC
:100EF0004D5F5F4F55954795559547954A836CE0F3
:100F00000E94280D9CE0899FB001112420E030E070
:100F1000A901460F571FFA01EE0FFF1FE40FF51F3F
:100F2000EF5CFD4F908196FD18C02F5F3F4F2C3036
:100F3000310571F790E08130910521F51092800024
:100F400082E0809381001092850010928400B19A13
:100F500080916F00826080936F00888190E0FC0137
:100F6000EE0FFF1FE80FF91FEF5CFD4F80818064DB
:100F700080838881DF91CF911F910F91FF90EF9037
:100F8000DF9008958230910569F41092900082E01C
:100F900080939100109295001092940088BB8093EA
:100FA0007100DBCF8330910569F41092A00082E0DC
:100FB0008093A1001092A5001092A40089BB809399
:100FC0007200CBCF892B49F61092200182E08093EA
:100FD000210110922501109224018ABB8093730095
:100FE000BCCF20E639E040E252E00C944207FC011D
:100FF0008081803370F5918128E830E0291B310928
:1010000097FD3395220F331F220F331F621773078B
:101010007CF0928128E532E0291B310997FD339558
:10102000220F331F220F331F621773070CF49B012B
:101030004FB7F89490E0FC01EE0FFF1FE80FF91F87
:10104000EF5CFD4F22503109220F331F3283218381
:101050004FBF08954F925F926F927F92AF92BF926F
:10106000CF92DF92EF92FF920F931F93CF93DF9374
:10107000EC01603282E078070CF040C077FD06C0DA
:10108000653B71052CF064EB70E002C060E070E03D
:10109000898128E830E0281B310987FD3395220F2C
:1010A000331F220F331F5901CC24B7FCC094DC2C12
:1010B000882777FD8095982F2A8148E552E0421BCA
:1010C000510927FD5395440F551F440F551F2A0101
:1010D000662457FC6094762C7F926F925F924F92B9
:1010E00014EBE12EF12C00E010E020E030E0A9014B
:1010F0000E944E090F900F900F900F90CE01DF913C
:10110000CF911F910F91FF90EF90DF90CF90BF9004
:10111000AF907F906F905F904F900C94F70790E0A6
:10112000FC013197E131F10508F048C0EE58FF4F5E
:101130000C94530D809180008F7703C080918000C4
:101140008F7D80938000089584B58F7702C084B529
:101150008F7D84BD08958091B0008F7703C080910A
:10116000B0008F7D8093B0000895809190008F77BC
:1011700007C0809190008F7D03C080919000877F91
:101180008093900008958091A0008F7707C0809190
:10119000A0008F7D03C08091A000877F8093A00076
:1011A0000895809120018F7707C0809120018F7D65
:1011B00003C080912001877F809320010895CF9301
:1011C000DF9390E0FC01EE5EFD4F2491FC01E85AB4
:1011D000FD4F8491882349F190E0880F991FFC010D
:1011E000E854FD4FA591B49182569D4FFC01C591E5
:1011F000D4919FB7611108C0F8948C9120958223F7
:101200008C93888182230AC0623051F4F8948C91C7
:10121000322F309583238C938881822B888304C05E
:10122000F8948C91822B8C939FBFDF91CF9108957E
:101230000F931F93CF93DF931F92CDB7DEB7282F65
:1012400030E0F901E453FE4F8491F901EE5EFD4F69
:101250001491F901E85AFD4F04910023C9F0882345
:1012600021F069830E948F086981E02FF0E0EE0F82
:10127000FF1FE256FD4FA591B4919FB7F8948C9152
:10128000611103C01095812301C0812B8C939FBFF6
:101290000F90DF91CF911F910F9108954F925F9220
:1012A0006F927F92AF92BF92CF92DF92EF92FF92B6
:1012B0000F931F93CF93DF93CDB7DEB729013A0188
:1012C000621B730B840B950B2A893B894C895D89C2
:1012D0002A193B094C095D092A8B3B8B4C8B5D8B92
:1012E0009B01AC016A897B898C899D890E94180DBC
:1012F000E418F50806091709A80197010E94340DA2
:101300002A0D3B1D4C1D5D1DCA01B901DF91CF9116
:101310001F910F91FF90EF90DF90CF90BF90AF9013
:101320007F906F905F904F900895F8940C94990D72
:101330005058BB27AA270ED038C129D130F02ED162
:1013400020F031F49F3F11F41EF41EC10EF4E0951D
:10135000E7FB14C1E92F3AD180F3BA17620773078C
:101360008407950718F071F49EF552C10EF4E095CC
:101370000B2EBA2FA02D0B01B90190010C01CA014F
:10138000A0011124FF27591B99F0593F50F4503EFA
:1013900068F11A16F040A22F232F342F4427585FEC
:1013A000F3CF469537952795A795F0405395C9F704
:1013B0007EF41F16BA0B620B730B840BBAF09150BC
:1013C000A1F0FF0FBB1F661F771F881FC2F70EC05B
:1013D000BA0F621F731F841F48F48795779567952E
:1013E000B795F7959E3F08F0B3CF9395880F08F017
:1013F0009927EE0F9795879508959CD008F481E082
:1014000008950CD0D2C0CAD040F0C1D030F021F441
:101410005F3F19F0B3C05111FCC0B6C0D7D098F3EC
:101420009923C9F35523B1F3951B550BBB27AA2765
:1014300062177307840738F09F5F5F4F220F331FD7
:10144000441FAA1FA9F333D00E2E3AF0E0E830D0A3
:1014500091505040E695001CCAF729D0FE2F27D0A6
:10146000660F771F881FBB1F261737074807AB0774
:10147000B0E809F0BB0B802DBF01FF2793585F4FE9
:101480002AF09E3F510568F079C0C3C05F3FECF37E
:10149000983EDCF3869577956795B795F7959F5FAE
:1014A000C9F7880F911D9695879597F90895E1E002
:1014B000660F771F881FBB1F621773078407BA0761
:1014C00020F0621B730B840BBA0BEE1F88F7E095BC
:1014D000089504D06894B1119CC008957FD088F01D
:1014E0009F5790F0B92F9927B751A0F0D1F0660F10
:1014F000771F881F991F1AF0BA95C9F712C0B1302B
:1015000081F086D0B1E0089583C0672F782F8827B7
:10151000B85F39F0B93FCCF3869577956795B39569
:10152000D9F73EF490958095709561957F4F8F4FD8
:101530009F4F0895990F0008550FAA0BE0E8FEEFA2
:1015400016161706E807F907C0F012161306E40787
:10155000F50798F0621B730B840B950B39F40A2680
:1015600061F0232B242B252B21F408950A2609F45E
:10157000A140A6958FEF811D811D089597F99F6762
:1015800080E870E060E008959FEF80EC089500240B
:101590000A941616170618060906089500240A94D8
:1015A00012161306140605060895092E0394000C5E
:1015B00011F4882352F0BB0F40F4BF2B11F460FFED
:1015C00004C06F5F7F4F8F4F9F4F089557FD905816
:1015D000440F551F59F05F3F71F04795880F97FBF7
:1015E000991F61F09F3F79F08795089512161306B1
:1015F0001406551FF2CF4695F1DF08C016161706E0
:101600001806991FF1CF8695710561050894089514
:10161000E894BB2766277727CB0197F908958ADFDF
:1016200008F48FEF08950BD0C0CFB1DF28F0B6DFFC
:1016300018F0952309F0A2CFA7CF1124EACFC6DF77
:10164000A0F3959FD1F3950F50E0551F629FF001D5
:10165000729FBB27F00DB11D639FAA27F00DB11D2E
:10166000AA1F649F6627B00DA11D661F829F2227B7
:10167000B00DA11D621F739FB00DA11D621F839F3E
:10168000A00D611D221F749F3327A00D611D231F14
:10169000849F600D211D822F762F6A2F11249F5762
:1016A00050408AF0E1F088234AF0EE0FFF1FBB1F85
:1016B000661F771F881F91505040A9F79E3F510524
:1016C00070F05CCFA6CF5F3FECF3983EDCF38695DD
:1016D00077956795B795F795E7959F5FC1F7FE2BCF
:1016E000880F911D9695879597F90895FA01EE0F49
:1016F000FF1F30962105310599F16115710561F4DF
:101700008038BFE39B0749F168949038810561F008
:101710008038BFEF9B0741F0992342F5FF3FE10579
:101720003105210511F1E8940894E795D901AA2320
:1017300029F4AB2FBE2FF85FD0F310C0FF5F70F419
:10174000A695E0F7F73950F019F0FF3A38F49F7793
:101750009F930CD00F9007FC905808953EF014CF43
:1017600060E070E080E89FE308954FE79F775F9324
:101770004F933F932F93ACD02F913F914F915F9117
:1017800052DF05C019F40EF0F9CE42CFFDCE26DFB0
:10179000C8F39638C0F707F80F92E8942BE33AEABB
:1017A00048EB5FE74EDF0F920F920F924DB75EB797
:1017B0000F92CED0E6E0F1E024D04F915F91EF910F
:1017C000FF91E595EE1FFF1F49F0FE57E0684427A3
:1017D000EE0F441FFA95E1F74195550B40D00F905D
:1017E00007FE34C008959F3F31F0915020F4879553
:1017F00077956795B795880F911D9695879597F979
:101800000895DF93CF931F930F93FF92EF92DF9290
:101810007B018C01689405C0DA2EEF0110DFFE0118
:10182000E894A5912591359145915591AEF3EF013D
:1018300091DDFE019701A801DA9479F7DF90EF902E
:10184000FF900F911F91CF91DF9108959B01AC0103
:1018500060E070E080E89FE3D4CD90CEC4CFBEDEE0
:10186000E8F39923D9F3940F511DBBF391505040E5
:1018700094F059F0882332F0660F771F881F91503B
:101880005040C1F79E3F510544F7880F911D969532
:10189000879597F908955F3FACF0983E9CF0BB2781
:1018A000869577956795B79508F4B1609395C1F7DC
:1018B000BB0F58F711F460FFE8CF6F5F7F4F8F4F7A
:1018C0009F4FE3CFA6CE0EF08ECF5ECE689456CE5D
:1018D00085DEC8F39923D1F3C6F3DF93CF931F932B
:1018E0000F93FF92C92FDD2788232AF02197660FD7
:1018F000771F881FDAF720E030E040E85FEB9FE3D6
:10190000883920F0803E30F021968F7712DDEEE2AC
:10191000F1E003C00EDDEBE5F1E073DF8B01BE010A
:10192000EC01FB2E6F5771097595771F880B990B8A
:1019300044D028E132E741E35FE381DEAF2D980137
:10194000AE01FF900F911F91CF91DF9103DD2DCE5E
:10195000FA01DC01AA0FBB1F9B01AC01BF5728F4A1
:1019600022273327442750781FC0B75188F4AB2F64
:101970000024469537952795011CA395D2F30020A6
:1019800069F0220F331F441FB395DAF30DD0D0CC8A
:1019900061307105A0E88A07B94630F49B01AC01BB
:1019A0006627772788279078309621F02083318327
:1019B000428353830895E89409C097FB3EF49095C1
:1019C0008095709561957F4F8F4F9F4F9923A9F018
:1019D000F92F96E9BB279395F695879577956795A7
:1019E000B795F111F8CFFAF4BB0F11F460FF1BC0EB
:1019F0006F5F7F4F8F4F9F4F16C0882311F096E97E
:101A000011C0772321F09EE8872F762F05C066232B
:101A100071F096E8862F70E060E02AF09A95660FE4
:101A2000771F881FDAF7880F9695879597F908959D
:101A3000DB018F939F930E94590DBF91AF91A29F9D
:101A4000800D911DA39F900DB29F900D11240895BC
:101A5000991B79E004C0991F961708F0961B881F00
:101A60007A95C9F780950895052E97FB1EF400948A
:101A70000E944B0D57FD07D00E94680D07FC03D054
:101A80004EF40C944B0D50954095309521953F4F59
:101A90004F4F5F4F089590958095709561957F4F5A
:101AA0008F4F9F4F0895EE0FFF1F0590F491E02D8B
:101AB00019940E948A0DA59F900DB49F900DA49F2C
:101AC000800D911D112408950790F691E02D199431
:101AD000A1E21A2EAA1BBB1BFD010DC0AA1FBB1F32
:101AE000EE1FFF1FA217B307E407F50720F0A21BA4
:101AF000B30BE40BF50B661F771F881F991F1A9411
:101B000069F760957095809590959B01AC01BD013A
:101B1000CF010895A29FB001B39FC001A39F700D94
:101B2000811D1124911DB29F700D811D1124911DE5
:061B30000895F894FFCFB8
:0A1B36000000FA4408000600090050
:00000001FF
